S01700004763634170706C69636174696F6E312E737265635B
S11300000C942A000C944D010C943C000C943C007C
S11300100C943C000C943C000C943C000C943C006C
S11300200C943C000C943C000C943C000C943C005C
S11300300C943C000C943C000C943C000C943C004C
S11300400C943C000C943C000C943C000C943C003C
S11300500C943C0011241FBECFE5D8E0DEBFCDBF19
S113006020E0A0E6B0E001C01D92A336B207E1F79C
S11300700E94BE010C9497040C9400000E94B302E9
S113008061E480E00E94710161E481E00E947101F9
S113009061E482E00E94710162E480E00E947101E7
S11300A062E481E00E94710162E482E00E947101D5
S11300B00E94C002089561E480E00E947F0161E42F
S11300C081E00E947F0161E482E00E947F0162E49A
S11300D080E00E947F0162E481E00E947F0162E48B
S11300E082E00E947F0108950F931F93CF93DF93C3
S11300F0082F162FC0E0D0E005C0612F802F0E948A
S113010086012196C530D105C4F3DF91CF911F91AB
S11301100F910895EF92FF920F931F93CF93DF9364
S1130120E82EF62E042F122FC0E0D0E007C0212FB6
S1130130402F6F2D8E2D0E949B012196C530D10535
S1130140B4F3DF91CF911F910F91FF90EF90089539
S1130150CF930E945B0062E482E00E94780161E434
S113016080E00E947801C1E0C093600085E090E0E7
S11301700E94C302C093610061E481E00E947400A4
S113018061E480E00E947F0110926000109261009F
S113019061E481E00E947F0161E482E00E947801D1
S11301A0C093620085E090E00E94C30261E482E0B3
S11301B00E947F0110926200C093610061E481E0BB
S11301C00E94740010926100CF91089580916200A2
S11301D0813039F510926200109261001092600033
S11301E00E945B0062E480E00E94780161E482E0A6
S11301F00E94780185E090E00E94C30261E482E0FD
S11302000E947F0122E441E061E481E00E948A00CF
S113021098E088E10FB6F894A89581BD0FBE91BD12
S1130220089580916100813021F0809160008130D7
S113023081F510926200109261001092600062E4F5
S113024082E00E947F0122E441E061E481E00E94B7
S11302508A000E945B0061E482E00E94780162E40B
S113026080E00E94780185E090E00E94C30261E48E
S113027082E00E947F0122E441E061E481E00E9487
S11302808A0098E088E10FB6F894A89581BD0FBE66
S113029091BD08950E94A800FDCF1F920F920FB642
S11302A00F9211242F933F934F935F936F937F93F8
S11302B08F939F93AF93BF93EF93FF930E94E600B6
S11302C0FF91EF91BF91AF919F918F917F916F912A
S11302D05F914F913F912F910F900FBE0F901F9000
S11302E01895982F862F41E0692F0E94C301089525
S11302F0982F862F41E0692F0E943B020895982F82
S1130300862F40E0692F0E943B020895CF93DF932C
S1130310C82FD62F0E94780184EF91E00E94E60254
S11303206D2F8C2F0E947F0184EF91E00E94E602E2
S1130330DF91CF9108950F931F93CF93DF93182FDD
S1130340062FC42FD22F0E9478016D2F8C2F0E946C
S1130350780184EF91E00E94E602602F812F0E94D1
S11303607F016D2F8C2F0E947F0184EF91E00E940A
S1130370E602DF91CF911F910F9108950E943E00F4
S11303800E944A01FDCF823429F118F4813439F0F6
S113039008958334D1F1843409F452C0089541306E
S11303A059F42AB381E090E002C0880F991F6A953E
S11303B0E2F7822B8ABB089541115CC02AB381E025
S11303C090E002C0880F991F6A95E2F78095822316
S11303D08ABB0895413059F427B381E090E002C00C
S11303E0880F991F6A95E2F7822B87BB0895411104
S11303F041C027B381E090E002C0880F991F6A953D
S1130400E2F78095822387BB0895413059F424B3E1
S113041081E090E002C0880F991F6A95E2F7822B71
S113042084BB0895411126C024B381E090E002C04A
S1130430880F991F6A95E2F78095822384BB0895FB
S1130440413059F421B381E090E002C0880F991F34
S11304506A95E2F7822B81BB089541110BC021B349
S113046081E090E002C0880F991F6A95E2F78095B9
S1130470822381BB0895823429F118F4813439F040
S113048008958334D1F1843409F452C0089541307D
S113049059F42BB381E090E002C0880F991F6A954C
S11304A0E2F7822B8BBB089541115CC02BB381E032
S11304B090E002C0880F991F6A95E2F78095822325
S11304C08BBB0895413059F428B381E090E002C019
S11304D0880F991F6A95E2F7822B88BB0895411112
S11304E041C028B381E090E002C0880F991F6A954B
S11304F0E2F78095822388BB0895413059F425B3EF
S113050081E090E002C0880F991F6A95E2F7822B80
S113051085BB0895411126C025B381E090E002C057
S1130520880F991F6A95E2F78095822385BB089509
S1130530413059F422B381E090E002C0880F991F42
S11305406A95E2F7822B82BB089541110BC022B356
S113055081E090E002C0880F991F6A95E2F78095C8
S1130560822382BB08958FB780688FBF85B78E7F43
S113057085BF85B7826085BF8BB780648BBF0895C4
S113058013BE12BE0895BC01990F880B990B0E94EB
S1130590CA032DEB37E346E859E30E9420030E9487
S11305A009030E94920383B7816083BF20E030E097
S11305B008C008B600FEFDCF88B7816088BF2F5FF2
S11305C03F4F26173707ACF313BE0895BC01990FAC
S11305D0880B990B0E94CA032FE632E143E85EE3DD
S11305E00E9420030E9409030E94920383B7816042
S11305F083BF20E030E008C008B600FEFDCF88B716
S1130600816088BF2F5F3F4F26173707ACF313BEB7
S113061008950E94780490F09F3748F4911116F4DD
S11306200C94910460E070E080E89FE3089526F064
S11306301B16611D711D811D0C940B040C94260462
S11306400E9434030C9445040E943E0458F00E9416
S1130650370440F029F45F3F29F00C94050451114C
S11306600C9491040C9434040E94560468F3992366
S1130670B1F3552391F3951B550BBB27AA2762179A
S11306807307840738F09F5F5F4F220F331F441FA7
S1130690AA1FA9F335D00E2E3AF0E0E832D09150DB
S11306A05040E695001CCAF72BD0FE2F29D0660FC8
S11306B0771F881FBB1F261737074807AB07B0E80B
S11306C009F0BB0B802DBF01FF2793585F4F3AF011
S11306D09E3F510578F00C9405040C9491045F3FFF
S11306E0E4F3983ED4F3869577956795B795F79597
S11306F09F5FC9F7880F911D9695879597F908957F
S1130700E1E0660F771F881FBB1F6217730784071A
S1130710BA0720F0621B730B840BBA0BEE1F88F729
S1130720E09508950E9499036894B1110C94910482
S113073008950E945E0488F09F5798F0B92F992776
S1130740B751B0F0E1F0660F771F881F991F1AF0B8
S1130750BA95C9F714C0B13091F00E949004B1E089
S113076008950C949004672F782F8827B85F39F088
S1130770B93FCCF3869577956795B395D9F73EF451
S113078090958095709561957F4F8F4F9F4F0895F9
S1130790E89409C097FB3EF4909580957095619517
S11307A07F4F8F4F9F4F9923A9F0F92F96E9BB27CD
S11307B09395F695879577956795B795F111F8CF49
S11307C0FAF4BB0F11F460FF1BC06F5F7F4F8F4FB4
S11307D09F4F16C0882311F096E911C0772321F0AA
S11307E09EE8872F762F05C0662371F096E8862F42
S11307F070E060E02AF09A95660F771F881FDAF799
S1130800880F9695879597F9089597F99F6780E8DB
S113081070E060E00895882371F4772321F0985004
S1130820872B762F07C0662311F499270DC09051AA
S1130830862B70E060E02AF09A95660F771F881F78
S1130840DAF7880F9695879597F908959F3F31F0C9
S1130850915020F4879577956795B795880F911DEA
S11308609695879597F908959FEF80EC0895002455
S11308700A941616170618060906089500240A9401
S113088012161306140605060895092E0394000C87
S113089011F4882352F0BB0F40F4BF2B11F460FF16
S11308A004C06F5F7F4F8F4F9F4F089557FD90583F
S11308B0440F551F59F05F3F71F04795880F97FB20
S11308C0991F61F09F3F79F08795089512161306DA
S11308D01406551FF2CF4695F1DF08C01616170609
S11308E01806991FF1CF869571056105089408953E
S11308F00E945E04A0F0BEE7B91788F4BB279F38B6
S113090060F41616B11D672F782F8827985FF7CFEC
S1130910869577956795B11D93959639C8F3089593
S1130920E894BB2766277727CB0197F90895F894B5
S1050930FFCFF3
S9030000FC
